{
  "contractName": "eVOT_Contract",
  "abi": [
    {
      "inputs": [
        {
          "internalType": "string",
          "name": "_nume",
          "type": "string"
        }
      ],
      "name": "adaugaCandidat",
      "outputs": [],
      "stateMutability": "nonpayable",
      "type": "function"
    },
    {
      "inputs": [
        {
          "internalType": "uint256",
          "name": "_candidatID",
          "type": "uint256"
        }
      ],
      "name": "voteaza",
      "outputs": [],
      "stateMutability": "nonpayable",
      "type": "function"
    },
    {
      "inputs": [
        {
          "internalType": "uint256",
          "name": "_id",
          "type": "uint256"
        }
      ],
      "name": "Info_Candidat",
      "outputs": [
        {
          "internalType": "string",
          "name": "",
          "type": "string"
        },
        {
          "internalType": "uint256",
          "name": "",
          "type": "uint256"
        }
      ],
      "stateMutability": "view",
      "type": "function"
    },
    {
      "inputs": [
        {
          "internalType": "uint256",
          "name": "_candidatID",
          "type": "uint256"
        }
      ],
      "name": "getRezultate",
      "outputs": [
        {
          "internalType": "uint256",
          "name": "",
          "type": "uint256"
        }
      ],
      "stateMutability": "view",
      "type": "function"
    },
    {
      "inputs": [],
      "name": "sender",
      "outputs": [
        {
          "internalType": "address",
          "name": "",
          "type": "address"
        }
      ],
      "stateMutability": "view",
      "type": "function"
    },
    {
      "inputs": [
        {
          "internalType": "uint256",
          "name": "_candidatID",
          "type": "uint256"
        }
      ],
      "name": "getNume",
      "outputs": [
        {
          "internalType": "string",
          "name": "",
          "type": "string"
        }
      ],
      "stateMutability": "view",
      "type": "function"
    },
    {
      "inputs": [],
      "name": "resetCandidat",
      "outputs": [],
      "stateMutability": "nonpayable",
      "type": "function"
    }
  ],
  "bytecode": "0x608060405234801561001057600080fd5b50610cd5806100206000396000f3fe608060405234801561001057600080fd5b506004361061007d5760003560e01c8063647301881161005b57806364730188146100ff57806367e404ce1461011b57806391b4e26314610139578063e2f830f3146101695761007d565b8063175e202f14610082578063541c896b1461009e578063607928d8146100ce575b600080fd5b61009c600480360381019061009791906105c2565b610173565b005b6100b860048036038101906100b391906105c2565b6102a6565b6040516100c59190610688565b60405180910390f35b6100e860048036038101906100e391906105c2565b61034e565b6040516100f69291906106b9565b60405180910390f35b6101196004803603810190610114919061081e565b610414565b005b61012361048f565b60405161013091906108a8565b60405180910390f35b610153600480360381019061014e91906105c2565b610497565b60405161016091906108c3565b60405180910390f35b6101716104b7565b005b600015156000803373ffffffffffffffffffffffffffffffffffffffff1673ffffffffffffffffffffffffffffffffffffffff16815260200190815260200160002060009054906101000a900460ff16151514610205576040517f08c379a00000000000000000000000000000000000000000000000000000000081526004016101fc9061092a565b60405180910390fd5b60008111801561021757506002548111155b61022057600080fd5b60016000828152602001908152602001600020600201600081548092919061024790610979565b919050555060016000803373ffffffffffffffffffffffffffffffffffffffff1673ffffffffffffffffffffffffffffffffffffffff16815260200190815260200160002060006101000a81548160ff02191690831515021790555050565b60606001600083815260200190815260200160002060010180546102c9906109f0565b80601f01602080910402602001604051908101604052809291908181526020018280546102f5906109f0565b80156103425780601f1061031757610100808354040283529160200191610342565b820191906000526020600020905b81548152906001019060200180831161032557829003601f168201915b50505050509050919050565b6060600060016000848152602001908152602001600020600101600160008581526020019081526020016000206002015481805461038b906109f0565b80601f01602080910402602001604051908101604052809291908181526020018280546103b7906109f0565b80156104045780601f106103d957610100808354040283529160200191610404565b820191906000526020600020905b8154815290600101906020018083116103e757829003601f168201915b5050505050915091509150915091565b6002600081548092919061042790610979565b919050555060405180606001604052806002548152602001828152602001600081525060016000600254815260200190815260200160002060008201518160000155602082015181600101908161047e9190610bcd565b506040820151816002015590505050565b600033905090565b600060016000838152602001908152602001600020600201549050919050565b6000600190505b600254811161051057600160008281526020019081526020016000206000808201600090556001820160006104f3919061051b565b60028201600090555050808061050890610979565b9150506104be565b506000600281905550565b508054610527906109f0565b6000825580601f106105395750610558565b601f016020900490600052602060002090810190610557919061055b565b5b50565b5b8082111561057457600081600090555060010161055c565b5090565b6000604051905090565b600080fd5b600080fd5b6000819050919050565b61059f8161058c565b81146105aa57600080fd5b50565b6000813590506105bc81610596565b92915050565b6000602082840312156105d8576105d7610582565b5b60006105e6848285016105ad565b91505092915050565b600081519050919050565b600082825260208201905092915050565b60005b8381101561062957808201518184015260208101905061060e565b83811115610638576000848401525b50505050565b6000601f19601f8301169050919050565b600061065a826105ef565b61066481856105fa565b935061067481856020860161060b565b61067d8161063e565b840191505092915050565b600060208201905081810360008301526106a2818461064f565b905092915050565b6106b38161058c565b82525050565b600060408201905081810360008301526106d3818561064f565b90506106e260208301846106aa565b9392505050565b600080fd5b600080fd5b7f4e487b7100000000000000000000000000000000000000000000000000000000600052604160045260246000fd5b61072b8261063e565b810181811067ffffffffffffffff8211171561074a576107496106f3565b5b80604052505050565b600061075d610578565b90506107698282610722565b919050565b600067ffffffffffffffff821115610789576107886106f3565b5b6107928261063e565b9050602081019050919050565b82818337600083830152505050565b60006107c16107bc8461076e565b610753565b9050828152602081018484840111156107dd576107dc6106ee565b5b6107e884828561079f565b509392505050565b600082601f830112610805576108046106e9565b5b81356108158482602086016107ae565b91505092915050565b60006020828403121561083457610833610582565b5b600082013567ffffffffffffffff81111561085257610851610587565b5b61085e848285016107f0565b91505092915050565b600073ffffffffffffffffffffffffffffffffffffffff82169050919050565b600061089282610867565b9050919050565b6108a281610887565b82525050565b60006020820190506108bd6000830184610899565b92915050565b60006020820190506108d860008301846106aa565b92915050565b7f416920766f7461742064656a6121000000000000000000000000000000000000600082015250565b6000610914600e836105fa565b915061091f826108de565b602082019050919050565b6000602082019050818103600083015261094381610907565b9050919050565b7f4e487b7100000000000000000000000000000000000000000000000000000000600052601160045260246000fd5b60006109848261058c565b91507fffffffffffffffffffffffffffffffffffffffffffffffffffffffffffffffff82036109b6576109b561094a565b5b600182019050919050565b7f4e487b7100000000000000000000000000000000000000000000000000000000600052602260045260246000fd5b60006002820490506001821680610a0857607f821691505b602082108103610a1b57610a1a6109c1565b5b50919050565b60008190508160005260206000209050919050565b60006020601f8301049050919050565b600082821b905092915050565b600060088302610a837fffffffffffffffffffffffffffffffffffffffffffffffffffffffffffffffff82610a46565b610a8d8683610a46565b95508019841693508086168417925050509392505050565b6000819050919050565b6000610aca610ac5610ac08461058c565b610aa5565b61058c565b9050919050565b6000819050919050565b610ae483610aaf565b610af8610af082610ad1565b848454610a53565b825550505050565b600090565b610b0d610b00565b610b18818484610adb565b505050565b5b81811015610b3c57610b31600082610b05565b600181019050610b1e565b5050565b601f821115610b8157610b5281610a21565b610b5b84610a36565b81016020851015610b6a578190505b610b7e610b7685610a36565b830182610b1d565b50505b505050565b600082821c905092915050565b6000610ba460001984600802610b86565b1980831691505092915050565b6000610bbd8383610b93565b9150826002028217905092915050565b610bd6826105ef565b67ffffffffffffffff811115610bef57610bee6106f3565b5b610bf982546109f0565b610c04828285610b40565b600060209050601f831160018114610c375760008415610c25578287015190505b610c2f8582610bb1565b865550610c97565b601f198416610c4586610a21565b60005b82811015610c6d57848901518255600182019150602085019450602081019050610c48565b86831015610c8a5784890151610c86601f891682610b93565b8355505b6001600288020188555050505b50505050505056fea264697066735822122082d0998bcd93528c9123ad438e1de290a81c482e427f4aec8864c9a9e54660e264736f6c634300080f0033",
  "immutableReferences": {},
  "source": "// SPDX-License-Identifier: MIT\r\npragma solidity >=0.5.16;\r\n\r\ncontract eVOT_Contract\r\n{\r\n\tstruct Candidat\r\n\t{\r\n\t\tuint id;\r\n\t\tstring nume;\r\n\t\tuint nr_voturi;\r\n\t}\r\n\r\n\tmapping(address => bool) private listaVoturi;\r\n\tmapping(uint => Candidat) private candidat;\r\n\r\n\tuint private nr_Candidat;\r\n\r\n    modifier DoarDacaNuAmVotat\r\n\t{\r\n        require(listaVoturi[msg.sender] == false, \"Ai votat deja!\");\r\n\t\t// you can use throw instead;\r\n        _;\r\n    }\r\n\r\n\tfunction adaugaCandidat(string memory _nume) public\r\n\t{\r\n\t\tnr_Candidat++;\r\n\t\tcandidat[nr_Candidat] = Candidat(nr_Candidat, _nume, 0);\r\n\t}\r\n\r\n\tfunction voteaza(uint _candidatID) public DoarDacaNuAmVotat\r\n\t{\r\n        // Checking the candidate is a valid\r\n        require(\r\n        \t_candidatID > 0 && _candidatID <= nr_Candidat\r\n        \t//\"Invalid candidate\"\r\n        );\r\n\r\n\t\t// update candidate vote count\r\n\t\tcandidat[_candidatID].nr_voturi++;\r\n\t\tlistaVoturi[msg.sender] = true;\r\n\t}\r\n\r\n\tfunction Info_Candidat(uint _id) public view returns(string memory, uint)\r\n\t{\r\n\t\treturn (candidat[_id].nume, candidat[_id].nr_voturi);\r\n\t}\r\n\r\n\tfunction getRezultate(uint _candidatID) public view returns(uint)\r\n\t{\r\n\t\treturn (candidat[_candidatID].nr_voturi);\r\n\t}\r\n\r\n\tfunction sender() public view returns(address)\r\n\t{\r\n\t\treturn (msg.sender);\r\n\t}\r\n\r\n\tfunction getNume(uint _candidatID) public view returns(string memory )\r\n\t{\r\n\t\treturn candidat[_candidatID].nume;\r\n\t}\r\n\r\n\tfunction resetCandidat() public\r\n\t{\r\n\t\tfor (uint i = 1; i <= nr_Candidat; i++)\r\n\t\t{\r\n\t\t\tdelete candidat[i];\r\n\t\t}\r\n\t\tnr_Candidat = 0;\r\n\t}\r\n}",
  "sourcePath": "E:\\DISERTATIE\\eVot\\eVot\\contracts\\Contract.sol",
  "compiler": {
    "name": "solc",
    "version": "0.8.15+commit.e14f2714.Emscripten.clang"
  },
  "schemaVersion": "3.4.8",
  "updatedAt": "2022-08-31T09:56:04.893Z",
  "devdoc": {
    "kind": "dev",
    "methods": {},
    "version": 1
  },
  "userdoc": {
    "kind": "user",
    "methods": {},
    "version": 1
  }
}